:100000000C942A000C94FD0B0C94260C0C944F0CB1
:100010000C947D070C9454070C9447000C944700F3
:100020000C9447000C9447000C94AD080C94840881
:100030000C94740A0C9424060C944D060C94FB0545
:100040000C94160F0C9447000C9447000C94470036
:100050000C94470011241FBECFE5D4E0DEBFCDBF16
:1000600010E0A0E6B0E0E4E1FFE102C005900D92EF
:10007000A838B107D9F710E0A8E8B0E001C01D9298
:10008000A03AB107E1F70E9449000C94880F0C9444
:1000900000000F931F93DF93CF93CDB7DEB7609728
:1000A0000FB6F894DEBF0FBECDBFDE011196E0E8BB
:1000B000F0E087E001900D928150E1F787E08887BA
:1000C0008985807E8A608987DE011A96EAE7F0E0FA
:1000D00086E001900D928150E1F7CE0101960E94D9
:1000E000B202CE0108960E94B00E888980788160A5
:1000F0008064888BCE0140960E94280880E690E0BC
:100100000E943E0181E690E00E943E01CE010A96E7
:100110000E9497048E01065F1F4FC80161E470E0E2
:100120000E94DD04FACF0F931F93DF93CF930F92BA
:10013000CDB7DEB78C01009711F1FC018081282F2B
:100140002770822F90E00497D4F49081969596952D
:10015000969597708981807C990F990F990F822BC2
:10016000892B80648F778983CE0101960E94650D6B
:10017000F801808190E48927808381E001C080E0DC
:100180000F90CF91DF911F910F9108950F931F93BF
:10019000DF93CF930F92CDB7DEB78C01009759F163
:1001A000FC018081382F3770832F90E004971CF575
:1001B0009081969596959695977020812295269593
:1001C000269523708981807C990F990F990F832B35
:1001D000892B80642795222727958F77822B898307
:1001E000CE01019660E00E94FE0CF80180818F7BB9
:1001F000808381E001C080E00F90CF91DF911F915B
:100200000F9108950F931F93DF93CF930F92CDB764
:10021000DEB78C01009759F1FC018081382F3770CF
:10022000832F90E004971CF590819695969596956E
:100230009770208122952695269523708981807C50
:10024000990F990F990F832B892B8064279522276B
:1002500027958F77822B8983CE01019661E00E94DA
:10026000FE0CF80180818064808381E001C080E021
:100270000F90CF91DF911F910F910895DF93CF934E
:100280000F92CDB7DEB7FC01009729F18081382F9E
:100290003770832F90E00497F4F4808186958695DB
:1002A00086958770208122952695269523709981C1
:1002B000907C880F880F880F932B982B906427953C
:1002C000222727959F77922B9983CE0101960E9432
:1002D000890D81E001C080E00F90CF91DF910895FA
:1002E0000F931F93009711F480E00EC08C010E5FF6
:1002F0001F4FC80161E00E94FE0C81E08A95F1F772
:10030000C80160E00E94FE0C1F910F9108958F922A
:100310009F92AF92BF92CF92DF92EF92FF920F9394
:10032000CF93DF93EC01062F009711F480E062C0B9
:1003300061E00E94FE0CCE01019660E00E94FE0C7E
:100340000F2EF3E0AF2EBB24F02DAC0EBD1E602FA0
:1003500062956F706170C5010E94FE0CCC24DD2493
:100360006894C2F8CC0EDD1E602F629566956770AA
:100370006170C6010E94FE0C0F2EF5E0EF2EFF24E7
:10038000F02DEC0EFD1E602F6295669566956370EC
:100390006170C7010E94FE0C0F2EF6E08F2E99248B
:1003A000F02D8C0E9D1E602F661F6627661FC401F0
:1003B0000E94FE0CCE010E947001602F6170C50189
:1003C0000E94FE0C602F66956170C6010E94FE0CB3
:1003D000602F669566956170C7010E94FE0C602FC4
:1003E0006695669566956170C4010E94FE0CCE010B
:1003F0000E947001DF91CF910F91FF90EF90DF90FD
:10040000CF90BF90AF909F908F900895EF92FF9202
:100410001F93CF93DF937C01EB01009711F480E0F1
:1004200010C06881662311F481E00BC010E0C701A1
:100430000E9487011F5FFE01E10FF11D60816623AD
:10044000B1F7DF91CF911F91FF90EF9008958F92B8
:100450009F92AF92BF92CF92DF92EF92FF920F9353
:10046000CF93DF93EC01062F009711F480E062C078
:1004700060E00E94FE0CCE01019660E00E94FE0C3E
:100480000F2EF3E0AF2EBB24F02DAC0EBD1E602F5F
:1004900062956F706170C5010E94FE0CCC24DD2452
:1004A0006894C2F8CC0EDD1E602F62956695677069
:1004B0006170C6010E94FE0C0F2EF5E0EF2EFF24A6
:1004C000F02DEC0EFD1E602F6295669566956370AB
:1004D0006170C7010E94FE0C0F2EF6E08F2E99244A
:1004E000F02D8C0E9D1E602F661F6627661FC401AF
:1004F0000E94FE0CCE010E947001602F6170C50148
:100500000E94FE0C602F66956170C6010E94FE0C71
:10051000602F669566956170C7010E94FE0C602F82
:100520006695669566956170C4010E94FE0CCE01C9
:100530000E947001DF91CF910F91FF90EF90DF90BB
:10054000CF90BF90AF909F908F900895009711F437
:1005500080E0089561E00E942702E4EFF1E0319726
:10056000F1F70895CF93DF93EC01009711F480E049
:1005700049C00E94890DCE0102960E94890DCE01CC
:1005800001960E94890DCE0103960E94890DCE012D
:1005900004960E94890DCE0105960E94890DCE0118
:1005A00006960E94890D86EA9EE00197F1F7CE013A
:1005B00063E30E94270282EE94E00197F1F7CE01F7
:1005C00062E30E94270282E38A95F1F7CE0168E395
:1005D0000E942702CE0161E00E942702CE0162E064
:1005E0000E942702CE0166E00E942702CE016CE045
:1005F0000E942702CE0168E20E942702CE0160E835
:100600000E942702DF91CF910895892B99F06623EC
:1006100019F0613079F407C0E0E4F0E080818E7F6A
:10062000808381E00895E0E4F0E080818160808350
:1006300081E0089580E00895892BF1F1E0E4F0E095
:100640008081897F8083EAE2F0E080818B7F8083F4
:100650006230A9F0633028F4662341F0613061F51F
:1006600007C0633099F0673039F51AC081E008950A
:10067000E0E4F0E080818260808381E00895E0E43E
:10068000F0E080818460808381E00895E0E4F0E020
:1006900080818260808380818460808381E008958E
:1006A000E0E4F0E0808186608083EAE2F0E080812F
:1006B0008460808381E0089580E00895892BC1F0F3
:1006C000E0E4F0E0808180688083662319F0613087
:1006D00079F407C0E0E4F0E080818F7B808381E0E3
:1006E0000895E0E4F0E080818064808381E00895F3
:1006F00080E00895892BC1F0E0E4F0E0808180681B
:100700008083662319F0613079F407C0EBE2F0E0F2
:1007100080818E7F808381E00895EBE2F0E080812C
:100720008160808381E0089580E00895892BF1F055
:10073000E0E4F0E080818068808380818F7C80832A
:10074000623031F0633059F0662381F481E008951E
:10075000E0E4F0E080818062808381E00895E0E45D
:10076000F0E080818063808381E0089580E00895D7
:10077000892BC1F0E0E4F0E080818068808366230B
:1007800019F0613079F407C0E0E4F0E08081877F00
:10079000808381E00895E0E4F0E0808188608083D8
:1007A00081E0089580E00895892B99F0662319F07F
:1007B000613079F407C0EBE2F0E080818D7F8083C7
:1007C00081E00895EBE2F0E080818260808381E047
:1007D000089580E00895DC01009709F476C0411582
:1007E00051056105710509F470C0E0E4F0E0808115
:1007F0008F77808314968C911497881F8827881F81
:1008000090E00097A9F0019709F053C09A01AB015D
:10081000220F331F441F551F60E472E48FE090E005
:100820000E94520F215030404040504061E046C08D
:1008300015968C91817090E0009719F00197C9F599
:100840001EC09A01AB01220F331F441F551F220FF8
:10085000331F441F551F220F331F441F551F220FE4
:10086000331F441F551F60E472E48FE090E00E9444
:10087000520F215030404040504061E01FC09A016B
:10088000AB01220F331F441F551F220F331F441F7C
:10089000551F220F331F441F551F60E472E48FE081
:1008A00090E00E94520F215030404040504061E0A3
:1008B00005C060E020E030E040E050E029B9BB270F
:1008C000A52F942F832F80BD01C060E0862F08954F
:1008D000892B59F1613089F0613028F06230A1F044
:1008E000633019F518C0EAE2F0E08081877F8083E9
:1008F00080818F7E808381E00895EAE2F0E080814C
:100900008860808381E00895EAE2F0E08081806180
:10091000808381E00895EAE2F0E08081886080834E
:1009200080818061808381E0089580E00895CF9385
:10093000DF93EC01009711F480E03CC048815981BD
:100940006A817B810E94EB036D8166956695669551
:100950006170CE010E9405036C816770CE010E9418
:100960001C036C81661F6627661FCE010E945E0312
:100970006D8166956170CE010E947A036C816695E7
:10098000669566956370CE010E9496036D816695AB
:1009900066956170CE010E94B8036D816170CE01D1
:1009A0000E94D4036C816295669567706370CE0176
:1009B0000E946804DF91CF910895DC01009711F443
:1009C00080E00895EBE2F0E0808185FFFDCF149692
:1009D0008C918770873071F4EAE2F0E080818E7F3D
:1009E00080839081872F86958170892B80836CB955
:1009F00081E008956CB981E00895FC01009711F43D
:100A000080E008958BB182958695877080FD02C045
:100A100081E0089584818770873071F4EAE2F0E024
:100A200080818E7F80839081872F86958170892B2E
:100A300080836CB981E008956CB981E00895CF930B
:100A4000DF93DC01EB01009711F480E025C0EBE2BD
:100A5000F0E080818823ECF714968C9187708730C2
:100A600091F48AB14CB190E081709070982F8827F2
:100A700028813981822B932B50E0842B952B9983ED
:100A8000888381E009C02CB130E088819981822B74
:100A9000932B9983888381E0DF91CF910895FC01A6
:100AA000DB01009711F480E008958BB1882314F0E6
:100AB00081E0089584818770873099F48AB14CB1C0
:100AC00090E081709070982F88272D913C9111971C
:100AD000822B932B50E0842B952B8D939C9381E05C
:100AE00008952CB130E08D919C911197822B932B1E
:100AF0008D939C9381E008950F931F93CF93DF9381
:100B00008C01EB016881662341F0C80170E00E940E
:100B1000DD04219668816623C1F781E0DF91CF91E2
:100B20001F910F910895EAE2F0E080818064808354
:100B300081E00895EAE2F0E080818F7B808381E0AC
:100B40000895EAE2F0E080818068808381E0089582
:100B5000EAE2F0E080818F77808381E00895EAE225
:100B6000F0E080818062808381E00895EAE2F0E035
:100B700080818F7D808381E00895CF93DF93EC01A6
:100B8000009711F480E00DC060E00E946804CE017F
:100B900060E00E94D4030E94B6050E949A050E945C
:100BA000A805DF91CF910895892B49F06115710552
:100BB00031F070938D0060938C0081E0089580E0A7
:100BC0000895892B49F06115710531F070938B0000
:100BD00060938A0081E0089580E00895892B49F0B0
:100BE0006115710531F0709389006093880081E090
:100BF000089580E008951F920F920FB60F9211246E
:100C00002F933F934F935F936F937F938F939F9314
:100C1000AF93BF93EF93FF93E0918C00F0918D0021
:100C2000309709F00995FF91EF91BF91AF919F9196
:100C30008F917F916F915F914F913F912F910F9085
:100C40000FBE0F901F9018951F920F920FB60F9224
:100C500011242F933F934F935F936F937F938F93C1
:100C60009F93AF93BF93EF93FF93E0918A00F0912E
:100C70008B00309709F00995FF91EF91BF91AF91EB
:100C80009F918F917F916F915F914F913F912F91A4
:100C90000F900FBE0F901F9018951F920F920FB6D6
:100CA0000F9211242F933F934F935F936F937F93F2
:100CB0008F939F93AF93BF93EF93FF93E09188003F
:100CC000F0918900309709F00995FF91EF91BF915C
:100CD000AF919F918F917F916F915F914F913F91D4
:100CE0002F910F900FBE0F901F901895892B11F424
:100CF00080E00895E5E4F0E08081887F808381E0F2
:100D00000895892B11F480E0089564BD81E0089571
:100D1000FB01892B39F06115710521F084B58083C1
:100D200081E0089580E00895892B11F480E0089512
:100D300063BD81E00895FB01892B39F061157105D0
:100D400021F083B5808381E0089580E00895892BA8
:100D500069F0653658F48FEF689FC001112464E68E
:100D600070E00E943F0F63BD81E0089580E0089528
:100D7000892B11F480E00895E5E4F0E08081887F1C
:100D800080838081862B808381E00895892B71F197
:100D9000E5E4F0E08081877880839081842F8295DC
:100DA000807F892B8083613049F0613028F0623088
:100DB00061F06330D9F410C081E00895E5E4F0E01B
:100DC00080818064808381E00895E5E4F0E08081A3
:100DD0008860808381E00895E5E4F0E080818064AC
:100DE000808380818860808381E0089580E0089519
:100DF000CF93DF93EC01009711F480E011C068817C
:100E000067700E94B8064881642F6695669566955E
:100E100063704295469547704370CE010E94C606A6
:100E2000DF91CF910895E9E5F0E0808180648083CF
:100E300081E00895E9E5F0E080818F7B808381E0A7
:100E40000895E9E5F0E080818068808381E008957D
:100E5000E9E5F0E080818F77808381E00895009755
:100E600011F480E008950E9476060E941A070E94FD
:100E700028070895892B49F06115710531F07093A9
:100E800091006093900081E0089580E00895892B9F
:100E900049F06115710531F070938F0060938E00F9
:100EA00081E0089580E008951F920F920FB60F928F
:100EB00011242F933F934F935F936F937F938F935F
:100EC0009F93AF93BF93EF93FF93E0919000F091C6
:100ED0009100309709F00995FF91EF91BF91AF9183
:100EE0009F918F917F916F915F914F913F912F9142
:100EF0000F900FBE0F901F9018951F920F920FB674
:100F00000F9211242F933F934F935F936F937F938F
:100F10008F939F93AF93BF93EF93FF93E0918E00D6
:100F2000F0918F00309709F00995FF91EF91BF91F3
:100F3000AF919F918F917F916F915F914F913F9171
:100F40002F910F900FBE0F901F901895892B11F4C1
:100F500080E00895E3E5F0E08081887F808381E090
:100F60000895892B11F480E0089562BF81E008950F
:100F7000FB01892B39F06115710521F082B780835F
:100F800081E0089580E00895892B11F480E00895B0
:100F90006CBF81E00895FB01892B39F06115710563
:100FA00021F08CB7808381E0089580E00895892B3B
:100FB00069F0653658F48FEF689FC001112464E62C
:100FC00070E00E943F0F6CBF81E0089580E00895BB
:100FD000892B11F480E00895E3E5F0E08081887FBB
:100FE00080838081862B808381E00895892B71F135
:100FF000E3E5F0E08081877880839081842F82957B
:10100000807F892B8083613049F0613028F0623025
:1010100061F06330D9F410C081E00895E3E5F0E0B9
:1010200080818064808381E00895E3E5F0E0808141
:101030008860808381E00895E3E5F0E0808180644A
:10104000808380818860808381E0089580E00895B6
:10105000CF93DF93EC01009711F480E011C0688119
:1010600067700E94E8074881642F669566956695CB
:1010700063704295469547704370CE010E94F60713
:10108000DF91CF910895E9E5F0E080818160808370
:1010900081E00895E9E5F0E080818E7F808381E042
:1010A0000895E9E5F0E080818260808381E0089521
:1010B000E9E5F0E080818D7F808381E008950097ED
:1010C00011F480E008950E94A6070E944A080E9439
:1010D00058080895892B49F06115710531F0709316
:1010E00095006093940081E0089580E00895892B35
:1010F00049F06115710531F070939300609392008F
:1011000081E0089580E008951F920F920FB60F922C
:1011100011242F933F934F935F936F937F938F93FC
:101120009F93AF93BF93EF93FF93E0919400F0915F
:101130009500309709F00995FF91EF91BF91AF911C
:101140009F918F917F916F915F914F913F912F91DF
:101150000F900FBE0F901F9018951F920F920FB611
:101160000F9211242F933F934F935F936F937F932D
:101170008F939F93AF93BF93EF93FF93E091920070
:10118000F0919300309709F00995FF91EF91BF918D
:10119000AF919F918F917F916F915F914F913F910F
:1011A0002F910F900FBE0F901F901895892B11F45F
:1011B00080E00895EDE2F0E080818064808381E04A
:1011C0000895892B11F480E00895EDE2F0E080812C
:1011D0008F7B808381E00895892B99F0662319F035
:1011E000613079F407C0EDE2F0E080818F7D80838B
:1011F00081E00895EDE2F0E080818062808381E00B
:10120000089580E00895892B99F0662319F06130E4
:1012100079F407C0EDE2F0E080818F7E808381E089
:101220000895EDE2F0E080818061808381E008959F
:1012300080E00895DC01009711F480E00895E7E371
:10124000F0E08081807F808330812C91221F2227D3
:10125000221F2295207F11969C91892F8170829563
:10126000880F807E822B832B292F2295220F207EB0
:101270002074282B96959695979599279795922B5C
:10128000908381E00895892B09F452C0EEE2F0E0EA
:1012900080818E7F8083EDE2F0E080818C7F80838F
:1012A000442321F0413009F043C01FC0613041F0B8
:1012B000613008F43FC0623051F06330C9F50EC0B0
:1012C000EDE2F0E080818160808381E00895EDE2CD
:1012D000F0E080818260808381E00895EDE2F0E0BB
:1012E00080818360808381E00895EEE2F0E0808178
:1012F00081608083613039F06130E0F0623051F01C
:101300006330B1F40EC0EDE2F0E080818160808353
:1013100081E00895EDE2F0E080818260808381E0E9
:101320000895EDE2F0E080818360808381E008959C
:1013300080E0089581E00895892B99F0662319F0E3
:10134000613079F407C0EDE2F0E08081877F80832F
:1013500081E00895EDE2F0E080818860808381E0A3
:10136000089580E00895892B99F0662319F0613083
:1013700079F407C0EDE2F0E080818B7F808381E02B
:101380000895EDE2F0E080818460808381E008953B
:1013900080E00895CF93DF93EC01009711F480E093
:1013A0002EC068816695669561700E940309CE0122
:1013B0000E941A0968816695669566956170CE01EE
:1013C0000E94EC084881642F6370429546954695CB
:1013D00043704170CE010E944309688162956F702D
:1013E0006170CE010E949C09688162956695677064
:1013F0006170CE010E94B309CE010E94D608DF9130
:10140000CF910895892B11F480E008956FB9EEE231
:10141000F0E080818823ECF7EEE2F0E080818068E4
:10142000808381E00895892B11F480E008958EB1C6
:1014300088232CF4EEE2F0E08081806880836FB92D
:1014400081E00895DB01892B11F480E00895EEE23C
:10145000F0E080818823ECF78FB18C93EEE2F0E02E
:1014600080818068808381E008950F931F93CF93DC
:10147000DF938C01EB01009711F480E00CC06881D0
:10148000662341F0C80170E00E94350A2196688108
:101490006623C1F781E0DF91CF911F910F910895ED
:1014A000EDE2F0E080818068808381E00895EDE2E4
:1014B000F0E080818F77808381E00895009711F4B8
:1014C00080E008950E94E1080E94570A0895892B40
:1014D00049F06115710531F07093970060939600A3
:1014E00081E0089580E008951F920F920FB60F9249
:1014F00011242F933F934F935F936F937F938F9319
:101500009F93AF93BF93EF93FF93E0919600F09179
:101510009700309709F00995FF91EF91BF91AF9136
:101520009F918F917F916F915F914F913F912F91FB
:101530000F900FBE0F901F901895DC010097A1F13E
:1015400011968C911197837090E08130910591F004
:1015500082309105E1F0892B39F5EBE5F0E08081EF
:101560008064808311968C911197806111968C9381
:1015700081E00895EBE5F0E080818068808311963A
:101580008C911197806111968C9381E00895EBE521
:10159000F0E080818062808311968C911197806148
:1015A00011968C9381E0089580E00895DC01009706
:1015B000A1F111968C911197837090E08130910583
:1015C00091F082309105E1F0892B39F5EBE5F0E0FF
:1015D00080818F7B808311968C9111978F7E1196DD
:1015E0008C9381E00895EBE5F0E080818F77808334
:1015F00011968C9111978F7E11968C9381E00895AE
:10160000EBE5F0E080818F7D808311968C911197BE
:101610008F7E11968C9381E0089580E00895DC011F
:1016200011968C911197837090E08130910509F4A7
:1016300053C08230910509F49BC0892B09F0B8C0D2
:101640006130C1F0613030F0623029F1633009F06F
:10165000AFC032C0E5E5F0E080818E7F808380817D
:101660008D7F808311968C911197837F11968C9337
:1016700081E00895E5E5F0E08081816080838081EC
:101680008D7F808311968C911197837F8460119652
:101690008C9381E00895E5E5F0E080818E7F808382
:1016A00080818260808311968C911197837F8860FE
:1016B00011968C9381E00895E5E5F0E080818160EA
:1016C000808380818260808311968C9111978C60D9
:1016D00011968C9381E008956130C1F0613030F053
:1016E000623029F1633009F063C032C0E5E5F0E013
:1016F00080818B7F80838081877F808311968C910E
:101700001197837F11968C9381E00895E5E5F0E0D1
:101710008081846080838081877F808311968C9113
:101720001197837F846011968C9381E00895E5E59D
:10173000F0E080818B7F8083808188608083119638
:101740008C911197837F886011968C9381E0089526
:10175000E5E5F0E08081846080838081886080831B
:1017600011968C9111978C6011968C9381E008955D
:10177000623019F06330E1F40EC0E4E5F0E08081FE
:101780008F7B808311968C911197837F886011964F
:101790008C9381E00895E4E5F0E0808180648083AB
:1017A00011968C9111978C6011968C9381E008951D
:1017B00080E00895FC0161157105E9F08181837075
:1017C00090E08130910559F08230910571F0892BBC
:1017D00091F470939D0060939C0081E00895709354
:1017E0009B0060939A0081E0089570939900609344
:1017F000980081E0089580E008951F920F920FB63F
:101800000F9211242F933F934F935F936F937F9386
:101810008F939F93AF93BF93EF93FF93E0919C00BF
:10182000F0919D00309709F00995FF91EF91BF91DC
:10183000AF919F918F917F916F915F914F913F9168
:101840002F910F900FBE0F901F9018951F920F921F
:101850000FB60F9211242F933F934F935F936F9383
:101860007F938F939F93AF93BF93EF93FF93E091F9
:101870009A00F0919B00309709F00995FF91EF9144
:10188000BF91AF919F918F917F916F915F914F9198
:101890003F912F910F900FBE0F901F9018951F92A0
:1018A0000F920FB60F9211242F933F934F935F9394
:1018B0006F937F938F939F93AF93BF93EF93FF9318
:1018C000E0919800F0919900309709F00995FF9107
:1018D000EF91BF91AF919F918F917F916F915F91A8
:1018E0004F913F912F910F900FBE0F901F90189521
:1018F000CF93DF93EC01009711F480E00CC00E94BD
:10190000890DCE010E949D0A698166956695637076
:10191000CE010E940F0BDF91CF910895DC0100975B
:1019200009F43FC08C918770E82FF0E0E430F105B6
:10193000C4F58C918695869586958770382F8C9105
:101940008295869586958370817090E00097A9F0C6
:10195000019739F5EE0FFF1FEE59FF4F0190F0810F
:10196000E02D208181E090E002C0880F991F3A9518
:10197000E2F7282B208381E00895EE0FFF1FEE5938
:10198000FF4F0190F081E02D208181E090E002C0C6
:10199000880F991F3A95E2F780958223808381E032
:1019A000089580E00895CF93DF93DC01EB01009769
:1019B00009F161157105F1F08C918770E82FF0E065
:1019C000E430F105BCF42C912695269526952770D8
:1019D000EE0FFF1FEE59FF4F0190F081E02D808147
:1019E00090E002C0959587952A95E2F781708883EB
:1019F00081E001C080E0DF91CF910895DC01009784
:101A0000D1F18C918770E82FF0E0E430F1059CF57E
:101A10008C918695869586958770382F6623B9F0C8
:101A2000613011F081E00895EE0FFF1FE659FF4F7E
:101A30000190F081E02D208181E090E002C0880FCC
:101A4000991F3A95E2F7282B208381E00895EE0F45
:101A5000FF1FE659FF4F0190F081E02D208181E0CA
:101A600090E002C0880F991F3A95E2F78095822393
:101A7000808381E0089580E00895CF93DF93DC01B7
:101A8000EB010097F1F08C918770E82FF0E0E430E3
:101A9000F105BCF42C912695269526952770EE0F1E
:101AA000FF1FEE58FF4F0190F081E02D808190E004
:101AB00002C0959587952A95E2F78170888381E029
:101AC00001C080E0DF91CF910895DC010097F9F02B
:101AD0008C918770E82FF0E0E430F105C4F42C918C
:101AE0002695269526952770EE0FFF1FE659FF4F86
:101AF0000190F081E02D308181E090E002C0880FFC
:101B0000991F2A95E2F73827308381E0089580E015
:101B10000895CF93DF93EC01009781F0888187705F
:101B200090E004975CF4CE010E948E0C6881661FE1
:101B30006627661FCE010E94FE0C01C080E0DF9187
:101B4000CF910895843010F080E00895E82FF0E000
:101B5000EE0FFF1FEE59FF4F0190F081E02D6083E3
:101B600081E00895DB01843010F080E00895E82FD3
:101B7000F0E0EE0FFF1FEE59FF4F0190F081E02DD6
:101B800080818C9381E00895843010F080E0089586
:101B9000E82FF0E0EE0FFF1FE659FF4F0190F081B4
:101BA000E02D608381E00895DB01843010F080E057
:101BB0000895E82FF0E0EE0FFF1FE659FF4F019068
:101BC000F081E02D80818C9381E00895843010F0C5
:101BD00080E00895E82FF0E0EE0FFF1FE659FF4F79
:101BE0000190F081E02D80818095808381E00895CF
:101BF000E6E2F0E080818068808381E00895E6E29B
:101C0000F0E080818F77808381E00895892B61F0F7
:101C1000683050F4E6E2F0E08081887F8083808144
:101C2000862B808381E0089580E00895892B61F000
:101C3000683050F4E7E2F0E08081807E808380812C
:101C4000862B808381E0089580E00895E6E2F0E04D
:101C500080818860808381E00895E6E2F0E0808101
:101C6000877F808381E00895892B99F0643088F420
:101C7000623079F0E7E2F0E080818F7380839081B9
:101C8000862F8295880F880F807C892B808381E046
:101C9000089580E00895DC01009711F480E0089534
:101CA000E6E2F0E080818062808311968C9111974A
:101CB000886011968C9381E00895DC01009711F4FF
:101CC00080E00895E6E2F0E080818F7D80831196C8
:101CD0008C911197877F11968C9381E00895CF9313
:101CE000DF93EC01009711F480E007C00E94FF0D24
:101CF0000E942D0ECE010E945D0EDF91CF910895BE
:101D0000DC01009759F1683048F511968C911197D4
:101D100083FD02C081E00895E0E5F0E080818F71ED
:101D200080839081862F8295880F807E892B808387
:101D3000962F9295990F990F907C8C918F73892B88
:101D40008C93962F96959695917011968C911197EC
:101D50008E7F892B11968C9381E0089580E0089501
:101D6000CF93DF93EC01009711F480E02AC00E942A
:101D7000FF0D68816770CE010E94160E688166951E
:101D8000669566956770CE010E94060E698166951C
:101D90006370CE010E94340E898183FF10C0CE0192
:101DA0000E944B0E88818295869586958370698105
:101DB0006170660F660F682BCE010E94800E0E9434
:101DC000F80DDF91CF910895FC01DB01009711F42C
:101DD00080E00895818184FD06C084B195B18D9322
:101DE0009C9381E0089584B195B10024880F991FD8
:101DF000001C880F991F001C892F902D8D939C9398
:101E000081E00895892B49F06115710531F07093D7
:101E10009F0060939E0081E0089580E00895E6E2CF
:101E2000F0E080818064808381E008951F920F92AA
:101E30000FB60F9211242F933F934F935F936F939D
:101E40007F938F939F93AF93BF93EF93FF93E09113
:101E50009E00F0919F00309709F00995FF91EF9156
:101E6000BF91AF919F918F917F916F915F914F91B2
:101E70003F912F910F900FBE0F901F90189597FBD9
:101E8000092E07260AD077FD04D02ED006D00020D8
:101E90001AF4709561957F4F0895F6F790958195A6
:101EA0009F4F0895A1E21A2EAA1BBB1BFD010DC076
:101EB000AA1FBB1FEE1FFF1FA217B307E407F507FA
:101EC00020F0A21BB30BE40BF50B661F771F881FD6
:101ED000991F1A9469F760957095809590959B016C
:101EE000AC01BD01CF010895AA1BBB1B51E107C086
:101EF000AA1FBB1FA617B70710F0A61BB70B881F9A
:101F0000991F5A95A9F780959095BC01CD01089528
:041F1000F894FFCF73
:101F1400413B3A003700340031003B0038003500C3
:101F240032003900360033003000C01200007B005C
:081F3400636B73404850580034
:00000001FF
